S01E000050616E5F50726F6A6563745F446562756767696E67312E7372656395
S113000045C00000FDC00000E0C00000EAC00000E0
S11300105AC0000058C0000056C0000054C0000080
S113002052C0000050C000004EC000004CC0000090
S11300304AC0000048C0000046C0000044C00000A0
S113004042C0000040C000003EC000003CC00000B0
S11300503AC0000038C0000036C0000034C00000C0
S113006032C0000030C000002EC000002CC00000D0
S11300702AC0000028C0000026C0000024C00000E0
S113008022C0000020C000001EC0000011241FBEBA
S1130090CFEFD0E1DEBFCDBF11E0A0E0B1E0E2E2FE
S11300A0F2E000E00BBF02C007900D92AA30B10746
S11300B0D9F721E0AAE0B1E001C01D92AB30B2074C
S11300C0E1F744D0ACC09CCFFC01718360835383BF
S11300D042832483FB01308181E090E002C0880FD9
S11300E0991F2A95E2F7809583238083089587B327
S11300F0806187BB83B78B6683BF0895CF93DF93FB
S11301001F92CDB7DEB789838981813031F018F031
S1130110823031F007C011BE05C08FE781BF02C035
S11301208EEF81BF0F90DF91CF910895CF93DF932E
S11301301F92CDB7DEB78983E981F0E0E050FF4F2D
S113014080818BBB0F90DF91CF910895CF93DF9384
S1130150CDB7DEB72F970FB6F894DEBF0FBECDBF75
S113016021E040E350E061E370E0CE010196ACDFB2
S113017022E040E350E061E370E0CE010696A4DFA4
S113018020E040E350E061E370E0CE010B969CDF99
S11301908FEF8ABBE0910A01F0E0E050FF4F8081CD
S11301A08BBBA5DF89B7876089BFEAE6F0E0808171
S11301B08A62808388B7876088BF789480910A01B7
S11301C09DDF80910A01B2DFF9CF1F920F920FB623
S11301D00F92112410920A010F900FBE0F901F90DE
S11301E018951F920F920FB60F9211248F9381E0EE
S11301F080930A018F910F900FBE0F901F90189556
S11302001F920F920FB60F9211248F9382E0809366
S11302100A018F910F900FBE0F901F901895F894BC
S1050220FFCF0A
S10D02223F065B4F666D7D277F6782
S9030000FC
